:020000040800F2
:10000000B0060020CD010008191100086510000895
:10001000151100081503000839140008000000003D
:100020000000000000000000000000008111000836
:100030001903000800000000551100088311000892
:10004000E7010008E7010008E7010008E7010008F0
:10005000E7010008E7010008E7010008E7010008E0
:10006000E7010008E7010008E7010008E7010008D0
:10007000E7010008E7010008E7010008E7010008C0
:10008000E7010008E7010008E7010008E7010008B0
:10009000E7010008E7010008E7010008E7010008A0
:1000A000E7010008E7010008E7010008E701000890
:1000B000E7010008E7010008E7010008E701000880
:1000C000E7010008E7010008E7010008E701000870
:1000D000E7010008E7010008E7010008E701000860
:1000E000E7010008E7010008E7010008E701000850
:1000F000E7010008E7010008E7010008E701000840
:10010000E7010008E7010008E7010008E70100082F
:10011000E7010008E7010008E7010008E70100081F
:10012000E7010008E7010008E7010008E70100080F
:1001300000F002F800F03AF80AA090E8000C8244BF
:100140008344AAF10107DA4501D100F02FF8AFF29C
:10015000090EBAE80F0013F0010F18BFFB1A43F0A5
:10016000010318476013000080130000103A24BFF9
:1001700078C878C1FAD8520724BF30C830C144BF0C
:1001800004680C607047000000230024002500264E
:10019000103A28BF78C1FBD8520728BF30C148BFEA
:1001A0000B6070471FB51FBD10B510BD00F06CF897
:1001B0001146FFF7F7FF01F053F900F09EF803B482
:1001C000FFF7F2FF03BC01F03BF90000094880474C
:1001D00009480047FEE7FEE7FEE7FEE7FEE7FEE729
:1001E000FEE7FEE7FEE7FEE704480549054A064B41
:1001F000704700001912000831010008B00000200B
:10020000B0060020B0020020B00200200FB4044964
:1002100010B503AA029800F009F810BC5DF814FBB1
:10022000080000207047704770470000074B70B50A
:100230000D467B4400F011F80446284600F020F8F3
:1002400010B14FF0FF3070BD204670BD0F1200009E
:1002500001694A1C02610878704700B58FB0CDE98A
:1002600001310021059105497944CDE9031011467A
:10027000684600F02EF80FB000BD0000E5FFFFFF5C
:10028000007B00F080007047754600F03FF8AE46F6
:1002900005006946534620F00700854618B020B592
:1002A000FFF7A2FFBDE820404FF000064FF0000727
:1002B0004FF000084FF0000B21F00701AC46ACE80E
:1002C000C009ACE8C009ACE8C009ACE8C0098D467B
:1002D00070472DE9F04106460024D6E90170F56823
:1002E0008046304603E04146B847641C3046A84784
:1002F0000028F8D12046BDE8F08110B50446AFF3E0
:1003000000802046BDE81040FFF759BF0048704705
:100310004C00002000BFFEE7704731B500F0B2F995
:100320000546009C601C00B1641C00BF00F0AAF9E7
:10033000401BA042FAD338BD2DE9F84702460024FD
:10034000002000258446002700237BE14FF00108B0
:1003500008FA03F4D1F8008008EA0400A0427DD135
:10036000DFF8ECA2D1F80480A8EB0A09D0453AD016
:1003700014DCB8F1030F50D009DCB8F1000F31D014
:10038000B8F1010F1CD0B8F1020F49D120E0B8F14B
:10039000110F18D0B8F1120F42D11EE0B9F5881F25
:1003A00025D006DCB9F5803F20D0B9F5801F37D1C4
:1003B0001AE0B9F5001F18D0B9F5041F30D117E0C5
:1003C000D1F80CC02DE0D1F80C8008F1040C28E025
:1003D000D1F80C8008F1080C23E0D1F80C8008F16A
:1003E0000C0C1EE000BF00BF00BF00BF00BF00BF7D
:1003F000D1F80880B8F1000F02D14FF0040C0BE0E7
:10040000D1F80880B8F1010F03D14FF0080C146146
:1004100002E04FF0080C546103E04FF0000C00E0E4
:1004200000BF00BFFF2801D8904601E002F1040898
:100430004646FF2802D84FEA830803E0A3F10808E4
:100440004FEA88084746D6F800804FF00F0909FAAE
:1004500007F928EA09080CFA07F900E07AE048EA07
:100460000908C6F80080D1F8048008F08058B8F177
:10047000805F6FD100BFDFF8DC81D8F8188048F0CA
:100480000108DFF8D091C9F81880C846D8F818805C
:1004900008F00108CDF8008000BF00BF4FEAB9386E
:1004A0004FEA930958F829504FEA83784FEA1879B0
:1004B0004FF00F0808FA09F825EA0805DFF89881D7
:1004C000424502D14FF0000824E0DFF89081424518
:1004D00002D14FF001081DE0DFF88481424502D1CE
:1004E0004FF0020816E0DFF87C81424502D14FF060
:1004F00003080FE0DFF87081424502D14FF0040895
:1005000008E0DFF86881424502D14FF0050801E0BC
:100510004FF006084FEA83794FEA197908FA09F88B
:1005200048EA0505DFF848814FEA930948F8295061
:10053000D1F8048008F48038B8F5803F0BD1DFF89B
:100540003481D8F8008048EA0008DFF82891C9F81B
:1005500000800AE075E0DFF81C81D8F8008028EA06
:100560000008DFF81091C9F80080D1F8048008F481
:100570000038B8F5003F0ED1DFF8F88008F1040824
:10058000D8F8008048EA0008DFF8E89009F104098B
:10059000C9F800800DE0DFF8DC8008F10408D8F825
:1005A000008028EA0008DFF8CC9009F10409C9F8B6
:1005B0000080D1F8048008F48018B8F5801F0ED1AF
:1005C000DFF8B08008F10808D8F8008048EA000891
:1005D000DFF8A09009F10809C9F800800DE0DFF804
:1005E000948008F10808D8F8008028EA0008DFF8AD
:1005F000849009F10809C9F80080D1F8048008F452
:100600000018B8F5001F0ED1DFF8688008F10C085B
:10061000D8F8008048EA0008DFF8589009F10C0982
:10062000C9F800800DE0DFF84C8008F10C08D8F81C
:10063000008028EA0008DFF83C9009F10C09C9F8AD
:1006400000805B1C102BFFF481AEBDE8F887000032
:10065000000011100010024000080140000C014091
:10066000001001400014014000180140001C01402E
:1006700008000140000401400AB1016101E00B04DF
:1006800003617047014800687047000004000020C3
:1006900002480068401C01490860704704000020BF
:1006A00010B50848006840F01000064908600320B3
:1006B00000F0BEF80F2000F007F800F019F8002055
:1006C00010BD00000020024070B5044607480068D5
:1006D0004FF47A71B0FBF1F5284600F035FC0022AA
:1006E0002146501E00F065F8002070BD000000207B
:1006F00008B500BF2648806940F0010024498861A0
:100700000846806900F00100009000BF00BF032090
:1007100000F08EF8002211466FF00B0000F049F84F
:10072000002211466FF00A0000F043F80022114643
:100730006FF0090000F03DF800221146501F00F054
:1007400038F800221146101F00F033F8002211463D
:10075000901E00F02EF800221146501E00F029F8DD
:1007600000BF0C48406820F0E0600A494860084635
:10077000406840F08060486000BF00BF08464068A5
:1007800020F0E060486008464068486000BF08BD4F
:10079000001002400000014000BF00F01F020121D4
:1007A00091404209920002F1E022C2F8001100BF1C
:1007B00070472DE9F05F80460D461646002700F091
:1007C000ADFC074639462A46334601F00700C0F122
:1007D000070ABAF1040F02D94FF0040A01E0C0F190
:1007E000070AD14600F1040ABAF1070F02D24FF00E
:1007F000000A01E0A0F1030AD4464FF0010A0AFA08
:1008000009FAAAF1010A0AEA020A0AFA0CFA4FF0F6
:10081000010B0BFA0CFBABF1010B0BEA030B4AEAE1
:100820000B042146404600F081FCBDE8F09F00002B
:1008300000BF00F00702064B19684FF6FF0319408E
:10084000044B0B4343EA0221014B196000BF704780
:100850000CED00E00000FA0570B504460D460026D8
:100860006248006800F00700A8420ED25F480068A6
:1008700020F0070028435D4908600846006800F042
:100880000700A84201D0012070BD207800F00200CE
:10089000022807D15648406820F0F000A1680843BC
:1008A00053494860207800F0010000285DD060685E
:1008B000012806D14E48006800F4003090B90120AC
:1008C000E2E76068022806D14948006800F000703D
:1008D00040B90120D8E74648006800F0020008B996
:1008E0000120D1E74248406820F0030061680843D6
:1008F0003F494860FFF7C6FE06466068012810D1F0
:1009000008E0FFF7BFFE801B41F28831884201D921
:100910000320B9E73648406800F00C000428F0D105
:1009200023E06068022810D108E0FFF7ABFE801BCF
:1009300041F28831884201D90320A5E72C4840685C
:1009400000F00C000828F0D10FE008E0FFF79AFE55
:10095000801B41F28831884201D9032094E7244862
:10096000406800F00C000028F0D12048006800F03A
:100970000700A8420ED91D48006820F00700284350
:100980001A4908600846006800F00700A84201D034
:10099000012079E7207800F00400042807D11448EA
:1009A000406820F4E060E16808431149486020781D
:1009B00000F00800082808D10D48406820F4605075
:1009C000216940EAC1000A49486000F03DF8084941
:1009D0004968C1F30311074A515CC84006490860E1
:1009E0000F20FFF771FE00204EE7000000200240BC
:1009F00000100240AC14000800000020014800680C
:100A0000704700000000002000B5FFF7F7FF044921
:100A10004968C1F30221034A515CC84000BD00008F
:100A200000100240BC14000800B5FFF7E7FF0449BE
:100A30004968C1F3C221034A515CC84000BD0000AF
:100A400000100240BC140008F0B585B00FF2700C25
:100A50009CE8E01001A8A0E8E0101DA52D68009515
:100A6000002100240022002300201A4D696801F0B3
:100A70000C05FDB1042D02D0082D1AD101E0164855
:100A80001AE001ADC1F38346AB5D01F480355DB181
:100A9000104D6D68C5F340451DF805400E4DB5FB82
:100AA000F4F505FB03F202E00C4D03FB05F21046E2
:100AB00002E000BF084800BF00BF05B0F0BD000065
:100AC00002030405060708090A0B0C0D0E0F10108F
:100AD000010200000010024000127A0000093D00EF
:100AE000F8B504460025207800F00100002878D0F1
:100AF000F848406800F00C0004280CD0F548406825
:100B000000F00C00082811D1F248406800F4803051
:100B1000B0F5803F0AD1EF48006800F400300028AB
:100B20005FD0606800285CD10120F8BD00BF60681C
:100B3000B0F5803F06D1E748006840F48030E549D1
:100B4000086028E0606858B9E248006820F4803006
:100B5000E04908600846006820F4802008601AE038
:100B60006068B0F5A02F0BD1DA48006840F480200F
:100B7000D84908600846006840F4803008600AE000
:100B8000D448006820F48030D249086008460068E4
:100B900020F48020086000BF606888B1FFF772FD14
:100BA000054606E0FFF76EFD401B642801D90320CF
:100BB000BBE7C848006800F400300028F2D010E01D
:100BC000FFF760FD054606E0FFF75CFD401B64286B
:100BD00001D90320A9E7BF48006800F400300028CD
:100BE000F2D1207800F00200022857D1B9484068BD
:100BF00000F00C0050B1B748406800F00C00082825
:100C000018D1B448406800F4803098B9B148006801
:100C100000F0020020B12069012801D0012084E702
:100C2000AC48006820F0F800616940EAC100A949B9
:100C3000086033E02069E8B10120A7490860FFF7A8
:100C400021FD054606E0FFF71DFD401B022801D9E6
:100C500003206AE79F48006800F002000028F2D0F5
:100C60009C48006820F0F800616940EAC100994999
:100C7000086013E0002098490860FFF703FD05466F
:100C800006E0FFF7FFFC401B022801D903204CE7D8
:100C90009048006800F002000028F2D1207800F0AF
:100CA000080008282DD1A069B8B101208B4908603F
:100CB000FFF7E8FC054606E0FFF7E4FC401B0228CE
:100CC00001D9032031E78348406A00F00200002880
:100CD000F2D0012000F040FA13E000207F490860C4
:100CE000FFF7D0FC054606E0FFF7CCFC401B0228CE
:100CF00001D9032019E77748406A00F00200002874
:100D0000F2D1207800F00400042873D10026714845
:100D1000C06900F0805070B900BF6E48C06940F0F3
:100D200080506C49C8610846C06900F0805000904E
:100D300000BF00BF01266A48006800F48070B0B9A7
:100D40006748006840F4807065490860FFF79AFCC6
:100D5000054606E0FFF796FC401B642801D90320F6
:100D6000E3E65F48006800F480700028F2D000BF1E
:100D7000E068012806D15748006A40F00100554953
:100D8000086227E0E06858B95248006A20F0010084
:100D9000504908620846006A20F00400086219E021
:100DA000E06805280BD14B48006A40F0040049492F
:100DB00008620846006A40F0010008620AE04548FF
:100DC000006A20F00100434908620846006A20F0EA
:100DD0000400086200BFE068A0B1FFF753FC0546BD
:100DE00009E0FFF74FFC401B41F28831884202D9ED
:100DF00003209AE622E03748006A00F0020000284B
:100E0000EFD012E0FFF73EFC054608E0FFF73AFCA2
:100E1000401B41F28831884201D9032085E62D48E4
:100E2000006A00F002000028F0D1012E05D1294807
:100E3000C06920F080502749C86100BFE069C8B38D
:100E40002448406800F00C00082860D0E0690228BF
:100E500048D1002020490866FFF714FC054606E04B
:100E6000FFF710FC401B022801D903205DE619485A
:100E7000006800F000700028F2D1206AB0F5803FD1
:100E800007D11448406820F40030A1680843114994
:100E90004860D4E9080108430E49496821F47411F7
:100EA00008430C49486001200B490866FFF7EAFB3C
:100EB000054607E02DE0FFF7E5FB401B022801D9BE
:100EC000032032E60348006800F000700028F2D0EA
:100ED0001FE0000000100240000042428004424235
:100EE0000070004000200C490866FFF7CBFB054668
:100EF00006E0FFF7C7FB401B022801D9032014E6D8
:100F00000648006800F000700028F2D101E00120DE
:100F10000BE6002009E600000000424200100240FB
:100F2000042808D14FF0E021096941F004014FF095
:100F3000E022116107E04FF0E021096921F004018E
:100F40004FF0E0221161704770B504462546681ED7
:100F5000B0F1807F01D301200FE0681E4FF0E02147
:100F600048610F214FF0FF3000F0E0F800204FF013
:100F7000E021886107200861002070BD10B504469B
:100F80000CB9012010BDA06900B100E000BF94F8C9
:100F9000390028B9002084F83800204600F028F8ED
:100FA000242084F839002068C06820F400502168AB
:100FB000C860204600F05CF92068006920F4904089
:100FC000216808612068406920F02A002168486192
:100FD0002068C06840F400502168C8600020E063C9
:100FE000202084F8390084F83A000020CAE7000085
:100FF00010B586B0044618492068884229D100BF40
:101000001648806940F48040144988610846806928
:1010100000F48040019000BF00BF481502900220FC
:1010200003900320059002A90D48FFF785F94FF4BE
:101030008060029000200390049002A90848FFF706
:101040007BF9002211462520FFF7B3FB2520FFF78F
:10105000A3FB06B010BD00000038014000100240A4
:101060000008014000BFFEE700B585B000BF15488D
:10107000806940F01000134988610846806900F0DB
:101080001000009000BF00BF00BF0846806940F01C
:10109000040088610846806900F00400009000BFE9
:1010A00000BF002220210848FFF7E6FA2020019027
:1010B000012002900220049001A90348FFF73CF9A7
:1010C00005B000BD001002400010014010B50C48F2
:1010D0000C4908604FF4E130486000210948816004
:1010E000C16001610C21416100218161C161FFF793
:1010F00045FF18B1202104A000F0A0F910BD0000A8
:10110000003801400C0000205379735C75617274E3
:101110002E63000000BFFEE7704700000248006831
:10112000C0F30220704700000CED00E010B500286D
:1011300007DA0A07140E054A00F00F031B1FD454E8
:1011400003E00A07130E024A135410BD18ED00E025
:1011500000E400E07047000008B508490968C908C4
:101160004FF47A72B1FBF2F14143009100BF00BF2E
:1011700000994A1E00920029F9D108BD0000002004
:10118000704710B5FFF784FA10BD000010B590B09D
:1011900001200690000407900020089001200A908A
:1011A00002200D90C1030E914FF4E0110F9106A89B
:1011B000FFF796FC18B1142114A000F03FF90F209E
:1011C000019002200290002003904FF48060049070
:1011D00000200590022101A8FFF73EFB18B1222153
:1011E0000AA000F02BF9FFF709FC4FF47A71B0FB6D
:1011F000F1F42046FFF7A8FE0420FFF791FE00223D
:101200001146501EFFF7D5FA10B010BD5379735C2C
:101210005379732E630000001148006840F001000C
:101220000F490860084640680E4908400C4948606C
:10123000084600680C4908400949086008460068EB
:1012400020F4802008600846406820F4FE004860D2
:101250004FF41F008860C80304490860704700000D
:10126000001002400000FFF8FFFFF6FE08ED00E06E
:101270002DE9F041044600252068006920F4405023
:10128000E1680843216808612169A0680843616931
:10129000084305432068C06841F20C618843284335
:1012A0002168C8602068406920F44070A169084343
:1012B000216848615F49206888425CD1FFF7B4FB30
:1012C00000EBC00101EB001061688900B0FBF1F692
:1012D000FFF7AAFB00EBC00101EB00106168890079
:1012E000B0FBF1F06421B0FBF1F000EBC00101EBC9
:1012F0000010A6EB8000322101EB00106421B0FB4E
:10130000F1F000F0F006FFF78FFB00EBC00101EBFE
:10131000001061688900B0FBF1F06421B0FBF1F0CE
:1013200006EB0016FFF780FB00EBC00101EB00109D
:1013300061688900B0FBF1F7FFF776FB00EBC001B5
:1013400001EB001061688900B0FBF1F06421B0FB93
:10135000F1F000EBC00101EB0010A7EB800032219F
:1013600001EB00106421B0FBF1F000F00F003044FD
:10137000216888605BE0FFF747FB00EBC00101EBF1
:10138000001061688900B0FBF1F6FFF73DFB00EB50
:10139000C00101EB001061688900B0FBF1F064212D
:1013A000B0FBF1F000EBC00101EB0010A6EB8000F8
:1013B000322101EB00106421B0FBF1F000F0F006E7
:1013C000FFF722FB00EBC00101EB00106168890010
:1013D000B0FBF1F06421B0FBF1F006EB0016FFF773
:1013E00013FB00EBC00101EB001061688900B0FB4A
:1013F000F1F7FFF709FB00EBC00101EB001061689A
:101400008900B0FBF1F06421B0FBF1F000EBC0010A
:1014100001EB0010A7EB8000322101EB00106421EA
:10142000B0FBF1F000F00F00304421688860BDE8A7
:10143000F08100000038014000BFFEE700BFFEE77A
:1014400000BF704700BF054A126802F04002002A40
:10145000F9D0C2B2014B1B1D1A6070470038014021
:10146000FFF71EF9FFF792FEFFF7FEFDFFF72EFED6
:1014700014E00BA0FEF7CAFE002220210A48FFF765
:10148000FBF84FF4FA70FEF748FF012220210648CE
:10149000FFF7F2F84FF4FA70FEF73FFFE9E70000BC
:1014A000746573740000000000100140000000002B
:1014B0000000000001020304060708090000000004
:1014C00001020304E4140008000000200C000000E6
:1014D0006C010008F01400080C000020A4060000B5
:1014E0008801000800A24A0400000000000000007B
:0400000508000131BD
:00000001FF
